:400000000080002011000000150600001506000008B5044B1A6803F53F5302331A6000F001FB00BFFA46004010B5054C237833B9044B13B10448AFF300800123237010BD45
:400040003081FF1F00000000980D0000084B10B51BB108490848AFF300800848036803B910BD074B002BFBD0BDE81040184700BF000000003481FF1F980D0000C880FF1FE8
:400080000000000008B562B6054800F0FDFC00F099FC044800F0CCFC00F064F9FEE700BF1D020000AC0D000000B58BB06138192800F2A080DFE800F03C9E8E5C2C9E9E9E86
:4000C0009E9E9E9E9E9E9E9E0D9E4C9E9E9E1C7D9E6C4A4B1A889B78ADF804208DF806300199002000F01CF9454800F0A1FC81E000238DF80830FF228DF809208DF80A3026
:400100000299012000F00CF93E4800F091FC71E000238DF80C308DF80D30FF238DF80E300399022000F0FCF8374800F081FC61E0324B33F8042F9B78ADF810208DF81230D6
:400140000499032000F0ECF8304800F071FC51E02A4B33F8082F9B78ADF814208DF816300599042000F0DCF8294800F061FC41E0224B33F80C2F9B78ADF818208DF81A3060
:400180000699052000F0CCF8224800F051FC31E0214B1A6805321A608DF81C205A688DF81D209B688DF81E300799062000F0B8F820E0194B5A6805325A6019688DF82010A2
:4001C0008DF821209B688DF822300899062000F0A7F80FE0104A93680533936011688DF8241052688DF825208DF826300999062000F096F80BB05DF804FB00BF9C0D00004C
:40020000C00D0000C80D0000D00D0000D80D0000E40D0000F00D00004C81FF1F38B500F0E5FB044609E000F0DBFB054600F0EAFB2846FFF739FF013CE4B2002CF3D138BD57
:4002400008B500F0A7FA00F011FB00F07DFB08BD08B5C043C0B200F053FA08BD08B5C043C0B200F0B9FA08BD08B5C043C0B200F01FFB08BD00B583B00190C0B2FFF7E8FF70
:400280009DF80500FFF7EAFF9DF80600FFF7ECFF03B05DF804FB00BF08B5002000F080FC012000F07DFC002000F07AFC08BD00BF08B5012000F014FD08BD00BF08B5002066
:4002C00000F00EFD08BD00BF10B5124C2078012303FA00F0C0B200F017FCFFF7E9FF237803EB430323441A1D1B79507843EA0023907843EA0040FFF7BDFFFFF7CDFFFFF768
:40030000DDFF23785A1C2270082B01D10022227010BD00BF5881FF1F08B5FFF7D5FF08BD82B00191072809D800EB4000044B184402AB33F8042D9B788280837102B0704791
:400340005881FF1F10B582B00190002405E001992046FFF7E5FF0134E4B2072CF7D902B010BD00BF00B583B00A4800F0ABFCFFF767FF094B1A889B78ADF804208DF8063055
:400380000198FFF7DFFF00F0FDFB00F06DFC03B05DF804FB19030000FC0D0000FEE700BFF0B40022174611E050F82760F3B226F0FF0608E001EB420511F812406D78A555C7
:4003C0000132013BDBB2002BF4D101371E2FEBD9F0BC7047064B1B78DBB203F00701054A11701B09013213704422034B1A707047CF0100496E5800407658004008B50A4620
:40040000002100F0C0FC08BD38B500242B4B1C8058232B4A137002321480023213704FF49C72284B1A801823274A13704FF6FF7102321180023213700222244B1A70082210
:400440004FF040231A70032103F500731970204B1B78DBB21F490B701F4B1A8041F25122023B1A8019250CE01C4B1B7803F0010343EA440404F003044FF4F07000F03CFCF3
:40048000013D0DB1032CEFD115B90320FFF786FF134B4FF480721A8007221A70002211490A704820023108701A700222033B1A700D4A137843F00F03137038BD80400040E7
:4004C00082400040884000408A4000400043004008010049A146004022420040254200400440004006400040A243004008B500F03FFC08BD38B572B6354A137843F004036C
:40050000137000240CE0334D630019194A0011462A44084691882858FFF770FF0134E4B2082CF0D900240BE02A49A3001819420088188022C16B806BFFF7D8FF0134E4B267
:40054000002CF1D024494FF09040FFF729FF234A137843F0020313701032137843F0020313701F4C237843F040032370A2F58632513A137843F010031370082219491A488E
:40058000FFF7B4FF0A2219491948FFF7AFFF082218491948FFF7AAFF082218491848FFF7A5FF184A137843F008031370164D61232B70FFF729FF81232B700122134B1A7057
:4005C000FFF708FF0E2221461148FFF78FFF38BDE8460040000E00007C00004803500140A04300400C0700480251004014070048C051004020070048125100402807004873
:4006000022510040224300400048004004000840B043004008B500F07FFB03680C2B00D1FEE7FEE708B5104E104D16E029686B68AC68002204E051F8040B43F8040B043233
:40064000A242F8D1E868002203E0002143F8041B04328242F9D11035013E002EE6D100F061FBFFF70FFDFEE701000000680E000008B5104A104B1A60104A136843F40073BB
:40068000136000230AE0032B03D80D4A52F8231000E00C490C4A42F8231001332F2BF2D90A4B1A780A4B1A70074A0A4B1A60FFF721FF08BD0004FA050CED00E014ED00E00E
:4006C00000000000150600000080FF1FBC760040C080FF1F08ED00E0024A137843F08003137070477B650040014B1870704700BF0B650040014B1870704700BF4B65004081
:40070000014B1870704700BF2B650040014B1870704700BF8B650040014B1878704700BF6B650040014B1878704700BF5B65004008B501E0FFF7F6FFFFF7EEFF10F0100FE6
:40074000F8D108BD10B5114A137803F0C00343F0090313700E4C237843F001032370FF20FFF7C2FFFF20FFF7C5FF7F20FFF7C8FF0020FFF7CBFF00F0C7FA237843F010038C
:40078000237000F0C5FAFFF7D3FF10BD7B6500409B65004008B5054B1B7823B9FFF7D2FF0122024B1A70FFF797FF08BD7481FF1F024A137843F0800313707047786500407D
:4007C000014B1870704700BF0A640040014B1870704700BF4A640040014B1870704700BF2A640040014B1870704700BF8A640040014B1878704700BF6A640040014B1878FD
:40080000704700BF5A64004008B501E0FFF7F6FFFFF7EEFF10F0100FF8D108BD10B5114A137803F0C00343F0090313700E4C237843F001032370FF20FFF7C2FFFF20FFF75E
:40084000C5FF7F20FFF7C8FF0020FFF7CBFF00F05BFA237843F01003237000F059FAFFF7D3FF10BD786500409A64004008B5054B1B7823B9FFF7D2FF0122024B1A70FFF759
:4008800097FF08BD7581FF1F024A137843F08003137070477D640040014B1870704700BF08640040014B1870704700BF48640040014B1870704700BF28640040014B1870CB
:4008C000704700BF88650040014B1878704700BF68650040014B1878704700BF5864004008B501E0FFF7F6FFFFF7EEFF10F0100FF8D108BD08B5124A137803F0C00343F002
:40090000090313701B32137843F001031370FF20FFF7C2FFFF20FFF7C5FF7F20FFF7C8FF0020FFF7CBFF00F0EFF9064A137843F01003137000F0ECF9FFF7D2FF08BD00BF0F
:400940007D6400409865004008B5054B1B7823B9FFF7D0FF0122024B1A70FFF795FF08BD7681FF1F7222084B1A70202201331A700622A3F261131A70472210331A700022F6
:4009800050331A70704700BF8965004010B500F0BBF904460A4A137843F0200313700132137843F010031370A2F20112137843F01003137000F076F8204600F0A9F910BD76
:4009C0009965004008B5054B1B7823B9FFF7CAFF0122024B1A70FFF7D9FF08BD7781FF1F014B1878704700BF4A650040044B1B7813F0200F01D0012070470020704700BF47
:400A00006A650040024B1B780BB1024B187070477781FF1F49650040034B1B7813F0040FFAD1024B18707047696400404965004038B5074B1B782BB938BDFFF7EDFF013470
:400A4000A4B201E005460024285D0028F5D138BD7781FF1F014B1B681864704708ED00E04001C0B2014B1870704700BF00E400E00122014B1A60704700E100E00122014BEA
:400A80001A60704780E100E010B50446FFF7F6FF2046FFF7DFFF0720FFF7E2FFFFF7E8FF10BD00BF054A137843F0040313701032137843F004031370704700BFA24300406D
:400AC00008B500F021F9094A137843F020031370013A137843F010031370033A137843F01003137000F014F908BD00BF9C640040014B1878704700BF6B640040014B18785A
:400B0000704700BF68640040034B1B7813F0040FFAD0024B187070476B6400404C64004008B501E00A4B1B780A4B1B7813F0200FF8D100F0E9F8084B1A7842F001021A7009
:400B40001A7802F0FE021A7000F0E2F808BD00BF5C640040686400409C64004008B50F22064B1A70FFF7DCFFFFF7C2FFFFF7C6FF0023034A1370033A137008BD8C64004019
:400B80008B64004008B5054B1B7823B9FFF7E6FF0122024B1A70FFF793FF08BD7981FF1F044A137803F0FD03400000F0020018431070704720510040084A137843F00103FB
:400BC00013701032137843F00103137002F64D32137843F001031370704700BFA3430040014B1870704700BF034F0040014B1880704700BF044F0040014B1880704700BF70
:400C0000064F004008B5154A137803F0010313700232137803F0FC031370114B1A7802F0CF021A701A7842F030021A701A7802F0F0021A701A7842F00F021A70094A1378D2
:400C400043F0010313700120FFF7D0FF0120FFF7D3FF0820FFF7C4FF08BD00BF004F00400B4F0040014F004008B5054B1B7823B9FFF7C8FF0122024B1A70FFF79DFF08BD43
:400C80007A81FF1F024B1B68C3F88400704700BF08ED00E04001C0B2014B1870704700BF11E400E04FF40032014B1A60704700BF00E100E04FF40032014B1A60704700BFCC
:400CC00080E100E010B50446FFF7F4FF2046FFF7D9FF0720FFF7DEFFFFF7E4FF10BD00BF044A137803F0F703C00000F00800184310707047205100400230800803D000BF1B
:400D000001380046FCD17047EFF3108072B6704780F31088704700BF014B1868704700BF2C81FF1F0E4B70B51E460E4C0025E41AA410A54204D056F8253098470135F8E76C
:400D400000F080F8084B094C1E46E41AA4100025A54204D056F8253098470135F8E770BD500E0000500E0000500E0000580E000010B5431E0A44914204D011F8014B03F8BE
:400D8000014FF8E710BD03460244934202D003F8011BFAE77047000000000000FF800000FFFF000000FFFF00FF00FF0050726F6772616D20737461727465640D0A000000D3
:400DC0005265640D0A000000477265656E0D0A00426C75650D0A0000507572706C650D0A0000000059656C6C6F776973680D0A00547572716973680D0A000000FFFFFF00B0
:400E0000004F00400C00305100404000F0510040100000000140000C800C0140800300140140000800400140000A004C014000020050014020000000000C01408C06004899
:400E400080004300F8B500BFF8BC08BC9E4670474D00000071060000F8B500BFF8BC08BC9E46704729000000780E0000C880FF1F6800000050000000000000000000000020
:400E800000000000000000000000000000000000000000000000000000000000420E00000000000000000000000000000000000000000000000000000000000000000000E2
:400EC00000000000000000000000000000000000000000000000000000000000CC80FF1F000000000000000000000000000000000000000000000000000000000000000088
:400F000000000000000000000000000000000000000000000000000000000000000000000000000000000000000000000000000000000000000000000000000000000000B1
:400F40000000000000000000000000000000000000000000000000000000000000000000000000000000000000000000000000000000000000000000000000000000000071
:400F80000000000000000000000000000000000000000000000000000000000000000000000000000000000000000000000000000000000000000000000000000000000031
:400FC00000000000000000000000000000000000000000000000000000000000000000000000000000000000000000000000000000000000000000000000000000000000F1
:020000040003F7
:0200000480007A
:40000000024F0040065200400364004004650040010501400406014002070140680801404D090140580A0140420B01400A0C01402F0D014001150140481801403E1901408E
:40004000641A01404B1B0140024001400341014003420140054301400445014002460140024701400148014003490140094C01400C4D0140055001400151014001300A2794
:40008000082009301004110161806440890F8A0D8C0F880D89728A388B0DEC04B902BF01D904DF01210281020706081010091206180319021A0C1C021E0D2405260A2F012E
:4000C000310233043410360F37013A803E104060410345D04621480E49FF4AFF4BFF4DA04F0450185440580459045A045B045C105D015F01604062C06440654066C068C007
:400100006AC06CC06EC08208832087208B088CD18D0A8E0E8F14908C92139503960C97149B159CD19D409E06A113A30CA420A643AD13AF04B00FB10FB230B340B4C0B5203D
:40014000B710B828BA02BB02BE10BF54C006C604C9FFCA07CBFFCC40CD20CEF0CF05D008D401D804D904DA04DB04DC22DD22DF01E040E1A8E240E32002800302052008403E
:400180000A630D020E0A1020170818A019101A601C081E021F4020042245244025C0272028402B022E80302032083390372038A039023A043E084620482049104D014F10F1
:4001C00052805660571058225A88602062086409650478027B8088049108931096669780980999249B089E10A010A122A204A302A420A580A680AC01AD08B280B320C049B8
:40020000C2DDC424CA19CC2ECE4FD040D224D60FD870010804140B0B0C0C0E710F0410DC1222140916D01A031C101EAC1F0220102240262030E031083304341F35023701B8
:400240003A024010410645D246104702481B49FF4AFF4BFF4DA04F0450185405580459045A045B045C125D115F01604062C06440654066C068C06AC06CC06EC08402860D0E
:40028000886289058A148B0A8C0D8E809042920895039680970498119A229C8D9D0EA040A48DA88DAC8DAD04AF09B070B10FB280B40FB902BA22BE04D409D804D904DB0473
:4002C000DF0102100302040407090A6A0D0A0E090F20102012801681171419201A081B021C041D061F012124239127402F0131803604374038203B413D2041804818490131
:40030000501859015A045B805C405D095F20654090409101920193409780980899489A819B1DA110A204A310A502A940B008B123B410C0E5C2FFC4FCCA10CC58CE2DD00888
:40034000D204D6FBD8108A0292039A03A801B203D280D804DB04DD10DF010010040205040601070809120D0A0E091208171518101C401D642402251026AC27082D802E01F7
:4003800036A837013D023E94452347084D4A4E0855085680571067806E156F157340758076018104C0F2C2FAC472CA90CCF0CEF0D0E0D230D880E401E602020D16021C01B3
:4003C000260630043201340236083E105280540558045B045C015D105F01850C860289048A048C018D4F8FB091339522960299F39B0C9D089E04A111A401A5FFA801A94C96
:40040000ABB3AF33B002B180B340B404B50FB601B730B902BA08BB20BE11BF04C012C104C6BEC70CC81CC9FFCAFFCBFFCEF0CF44D00CD602D712D804D904DA04DB04DC2293
:40044000DD22DF01E6C0EA40EB02002002200301064009400A100E020F201114150819841A041B011C801E0A1F08212122042302282029942A0230803128320238A8420190
:400480004312521853805A085D015E085F4069146B017094732876808B48904491099201950296049A409B109E9CA010A140A312A608A780B520C017C2A5C426CA0FCC0FD7
:4004C000CE0ED00DD6D201210263039A045C05730622087F09730C1C0E611110136414671542161817191A042010240828182C043038317032583303341F3580370C3A22BB
:400500003F404025410342064401450C470E481149FF4AFF4BFF4C624DA04EF04F41500C54185604580459045A045B045C225D225F016640670269106A306B106D106E1036
:400540006F128A019301A202AE03B001B101B402BE10C010C104C5D0C602C701C816C9FFCAFFCBFFCDA0CF04D018D280D405D804D904DA04DB04DC11DD11DF01E040E2C066
:40058000E440E540E6C0E8C0EAC0ECC0EEC000020326060808080B0410801140132816801740188019101A101B221C801E082001210822022304274031083202350138027C
:4005C000391440294120430446804740480149A04A204F015204568859205A105B025C405E085F01600463427501874088408C018D408E0290449114948096109820998092
:400600009B2A9D109E0EA080A120A301A508A622B040C04FC206C49FCC83CE07D09ED20CD6D1D80D3220CC100108A620C010A620A908EC206B808380A620DC20E2805710B3
:400640005A808310D403B640E8088B40E004A6208620A620E64058016202660193409A01B601D602D803EC02128073408A028E809340A602B001C408DC01E202E404EC04EF
:4006800000070C070E0310061C06000304FC0003019800020A021098840200005698090260130064072138D8843800C0049A80008000040084000000009A000008007F131E
:4006C000800F02E0080000A0000051003406200005FEDC0B1FFFFFFF2200F008040000000000022C04040404000000010000C00040011011C001001140014001000000005D
:400700000000000000000000000000000100000000000000800040808000800000000000007B7B0070000000000F0F000500000000000000000000000000000000000000EF
:400740000000000000000000000000000000000000000000000000000000000000000000000000000000000000000000000000000000000000000000000000000000000079
:400780000000000000000000000000000000000000000000000000000000000000000000000000000000000000000000000000000000000000000000000000000000000039
:4007C00000000000000000000000000000000000000000000000000000000000000000000000000000000000000000000000000000000000000000000000000000000000F9
:4008000000000000000000000000000000000000000000000000000000000000000000000000000000000000000000000000000000000000000000000000000000000000B8
:0200000490006A
:0400000000004005B7
:0200000490105A
:04000000BC90ACAF55
:0200000490303A
:02000000910C61
:0200000490402A
:4000000000000000000000000000000000000000000000000000000000000000000000000000000000000000000000000000000000000000000000000000000000000000C0
:400040000000000000000000000000000000000000000000000000000000000000000000000000000000000000000000000000000000000000000000000000000000000080
:400080000000000000000000000000000000000000000000000000000000000000000000000000000000000000000000000000000000000000000000000000000000000040
:4000C0000000000000000000000000000000000000000000000000000000000000000000000000000000000000000000000000000000000000000000000000000000000000
:0200000490501A
:0C00000000012E16106900012E1DA175D4
:00000001FF